S0170000456D6265646465645F53656E7472792E737265631F
S1130000E02000202D01000029010000290100004A
S113001000000000000000000000000000000000DC
S113002000000000000000000000000029010000A2
S11300300000000000000000290100002901000068
S11300402901000029010000290100002901000004
S113005031090000290100002901000029010000E4
S113006029010000290100002901000029010000E4
S113007029010000290100002901000029010000D4
S113008029010000290100002901000029010000C4
S113009029010000290100002901000029010000B4
S11300A029010000290100002901000029010000A4
S11300B00000000010B5064C2378002B07D1054B37
S11300C0002B02D0044800E000BF0123237010BDC0
S11300D06800002000000000B8320000084B10B592
S11300E0002B03D00749084800E000BF0748036815
S11300F0002B00D110BD064B002BFBD09847F9E72D
S1130100000000006C000020B8320000B83200008B
S11301100000000010B5024B9847024B984710BDF1
S1130120A9030000A91B0000FEE70000F8B52A4A55
S11301302A4B9A4211D01A00294B9A420DD2294ACD
S113014003339B1A9B0801339B0000222348224956
S11301508C58845004329A42FAD1234A234B9A424F
S11301600AD2D34321495B1803218B4304339B18E0
S1130170002102C29342FCD11D4AFF211D4B8B4337
S11301809360FD3990235B001B4AD1501B4AD378FE
S11301900325AB4302242343D370D3780C27BB43FA
S11301A008263343D370164B987B30229043202289
S11301B010439873997BB943314399739A7BAA434B
S11301C022439A730F4A536880210B4353600E4BAA
S11301D098470E4B9847FEE7B83200000000002015
S11301E0680000200400002068000020DC000020DB
S11301F000ED00E0000000000070004100500041EC
S11302000048004100400041351D0000C9190000AC
S113021010B50F4A0F4B5A8080221202C023DB050F
S11302205A600D4B0D4A9A620D4A9A624F215A5CEC
S1130230042082435A545A5C0338824302435A547A
S113024018395A5C0E3002405A54064B984710BD78
S113025005400000000C00400044004100800240C2
S1130260000002C08904000070B5124B4820195CDC
S1130270042291431954195C0125A9430124214303
S1130280C9B219541438195C0F26B1430D3E3143D9
S1130290195449215E5C96435E545A5CAA43224336
S11302A0D2B25A541A5C3A390A4011310A431A54E8
S11302B070BDC04600440041054A136A04210B4343
S11302C01362044B044A5A80044A5A807047C04659
S11302D000040040000C00401440000013430000E0
S11302E010B5044B984704490448054B9847054BFF
S11302F0984710BDB902000000080042B800002071
S1130300550500006902000030B50E4B5622995C79
S11303100125A94301242143C9B299543B20195C06
S1130320473A91430C3A1143195457215A5CAA4352
S11303302243D2B25A541A5C48390A4021310A4342
S11303401A5430BD00440041044A136A80210B430F
S11303501362034A034B5A807047C04600040040AE
S113036019400000000C004010B5054B98470022CE
S113037004490548054B9847054B984710BDC046AE
S113038049030000001C0042AC0000207D0700006F
S11303900903000010B50248024B984710BDC0463F
S11303A010E000E01D04000010B50E4B9847C02378
S11303B0DB058022D20598215A5010395A500A4B35
S11303C020315A50094A5A5036315A5C012082432E
S11303D05A54074B9847074B9847074B9847074B86
S11303E0984710BD4108000000440041004000C08F
S11303F011020000E10200006903000095030000FF
S1130400EFF31083036072B6BFF35F8F7047BFF3DF
S11304105F8F036883F310887047000010B5024BA8
S11304201860024B984710BD84000020B5120000EC
S113043010B5044B1C68044B984701002000034B83
S1130440984710BD8400002039080000C91200003C
S113045070B50C4B5C68A0420ED00122002101262D
S1130460FF2503E02A0053185B080AD1A042F9D9FA
S1130470002A06D03100F6E7024B1B68002B00D09F
S1130480984770BD8800002010B5054B01225242E8
S11304905A6000221A600348034B984710BDC046B7
S11304A088000020510400007108000010B50F4BB3
S11304B05B68984208D0002914D00C4B1B68002BB1
S11304C009D00D2040420CE0084B1960002905D1E9
S11304D0074B984705E0054B196058600121044B10
S11304E0984710BD0D204042FBE7C046880000201D
S11304F00509000010B584B0140001AB1438828BD8
S11305001A800294054A5A8003911900044B9847B3
S1130510002800D1200004B010BDC0460080FFFFB9
S1130520250D000010B584B0140001AB1438828B83
S11305301A800294054A5A8003911900044B984783
S1130540002800D1200004B010BDC0460180FFFF88
S1130550250D000070B504000D00431E9841C0B283
S11305605E220749074B984729002000064B98470D
S1130570002803D1054BA361054B636170BDC046E0
S1130580582F0000F5070000710C0000250500003D
S1130590F504000010B5014B984710BDA10C0000F4
S11305A08905890D8023DB001A400A4382831000E9
S11305B07047000000B585B003AB197012785A700B
S11305C0828B69460A8002220192034A4A8002937E
S11305D0024B984705B000BD0080FFFF250D0000C9
S11305E070B586B0040016001D006B46D971073340
S11305F003A9828B0A8001224A6000224A808B6010
S1130600074B9847002801D006B070BD03A9054BDD
S11306104B808E604D602000014B9847F4E7C04644
S1130620250D00000180FFFF143008600020704792
S113063070B506000C00150000280DD00800431EFC
S11306409841C0B234220549054B984733682A00C3
S113065021003000984770BD0020F3E7742F00009C
S1130660F507000070B506000C00150000280DD039
S11306700800431E9841C0B23D220549054B9847E6
S113068073682A0021003000984770BD0020F3E70A
S1130690742F0000F5070000F8B5CE46474680B534
S11306A004000F009046002826D0002926D0100010
S11306B0431E9841F1221249124B98470834124DB7
S11306C02000A8470028FBD00026104B99460E4D69
S11306D0B95D2000C8472000A8470028FBD0013698
S11306E04645F5D30A4D2000A8470028FBD030002A
S11306F00CBC90469946F8BD0020DBE70020D9E702
S1130700882F0000F5070000510C0000410C000088
S11307105B0C0000F8B5CE46474680B504000F00D8
S1130720904600281DD000291DD01000431E98417A
S1130730862252000D490E4B9847002608340D4D71
S11307400D4B99462000A8470028FBD02000C8473D
S1130750B85501364645F5D330000CBC9046994651
S1130760F8BD0020E4E70020E2E7C046882F00003F
S1130770F5070000650C0000490C000070B5050089
S11307800C00002813D00800431E9841C0B2342244
S11307900849094B9847280008302100074B98471F
S11307A0002803D1064B6B60064B2B6070BD002004
S11307B0EDE7C046882F0000F5070000010C00009B
S11307C0150700009906000010B50400431E984167
S11307D0C0B253220449054B984720000830044B0B
S11307E09847002010BDC046882F0000F507000080
S11307F02D0C0000002800D100BE70470300064AFB
S11308001268002A04D0044A1068C31813607047A1
S11308100249014A1160F6E790000020E020002020
S113082001204042704780239B014B6000207047A9
S11308300120704700207047FA239B0058437047FB
S113084010B5064B5A685A60054B9847054B9847B4
S1130850054B9847FF20054B984710BD00400041C9
S1130860390A00005D120000A5120000190A0000F8
S1130870214A5378DB09FCD11F4A5378DB09FCD1A8
S11308801D4B1B789B070AD500221B4B1A701A00BC
S11308905378DB09FCD1184A5378DB09FCD10122D7
S11308A0154B1A701A005378DB09FCD1124A53789D
S11308B0DB09FCD1104B00229A705A605A619A618C
S11308C080225205DA611A7802210A431A701A004A
S11308D05378DB09FCD1094B102280215A50BFF315
S11308E04F8FBFF36F8F0131FF315A501A60044BA1
S11308F0186000207047C0460018004000E100E086
S1130900940000200F2802D00D2040427047002997
S113091006D1064B802212029A601A610020F5E784
S113092080221202014BDA600020EFE70018004039
S1130930F0B5CE46474680B583B0314B1A69D968C5
S11309400A400192019A1A612E4B1868431E98417D
S1130950C0B2D2222C492D4B9847019B002B49D081
S113096001235B4299462A4B9846264F294D3AE08B
S1130970013AD6B2B1420CD873185B10DAB2034014
S1130980DB005B5DA34208D09C42F1DD0132D1B2B1
S1130990F0E74B46013305D001E00F239946484662
S11309A03B689847019B0122A2409343019301981D
S11309B0174B9847013844B2631C0AD00F2C05D05A
S11309C00F23002201260021FF20DDE70F23994693
S11309D0E5E70B4B1A69D9680A400192019A1A613A
S11309E0019B002B06D00198C047013844B2631C18
S11309F0E4D1EEE703B00CBC90469946F0BDC04686
S1130A000018004094000020AC2F0000F5070000FF
S1130A10E11C0000A42F0000C3070AD5054B802267
S1130A2052009A60832252025A601A005378DB09FA
S1130A30FCD17047000C0040064B1A7AD2B21A72ED
S1130A405A7AD2B25A729A7AD2B29A72DA7AD2B202
S1130A50DA7270470004004010B5084B9C466044AD
S1130A60800AC0B2002807D0E62292000449002080
S1130A70044B98470120404210BDC04600F8FFBD1A
S1130A80DC2F0000F507000070B505000C0008001D
S1130A90314B9847C0B2E369DB0721D443001B18EC
S1130AA0DB002E4AD31859681C2319400322E3693A
S1130AB01A42FCD123689B070BD523680222934377
S1130AC023600132E3691A42FCD10222E3691A422B
S1130AD0FCD101230B4323600322E3691A42FCD1B6
S1130AE00122E3691A42FCD143001B18DB001B4AB4
S1130AF0D318596821600322E3691A42FCD14300E8
S1130B001B18DB00154AD3189B6863600422E36951
S1130B101A42FCD143001B18DB00104AD318DB68CF
S1130B20E3608901890FA981636A0D4E1E40012388
S1130B308B429B415B429B03334363620422E36920
S1130B401A42FCD143001818C000044B1818438AF9
S1130B50EB81002070BDC046590A0000C42F00007C
S1130B60FFBFFFFF10B504001F4BC3189B0ADBB285
S1130B70052B04D01D4A1E4900201E4B9847E369EB
S1130B80DB0718D40322E3691A42FCD123689B07CC
S1130B900BD523680222934323600132E3691A428E
S1130BA0FCD10222E3691A42FCD10523236003220B
S1130BB0E3691A42FCD10122E3691A42FCD10E4BCB
S1130BC023600322E3691A42FCD1C0239B026360C1
S1130BD00722E3691A42FCD1084BA3810023A373C3
S1130BE03022A354002010BD00F8FFBD3A020000DB
S1130BF0DC2F0000F507000004001040B66200007E
S1130C0070B505000C00431E9841C0B2B4220449DB
S1130C10044B98472C602000034B984770BDC04696
S1130C20DC2F0000F5070000650B00000268136864
S1130C3002210B4313600131D3691942FCD170477F
S1130C40036889B2198570470368188DC0B270476C
S1130C500368187E0123184070470368187E8007D4
S1130C60C00F70470368187E4007C00F704700002C
S1130C7070B504000D00431E9841C0B2044A0549F2
S1130C80054B9847256129002000044B984770BD07
S1130C9007050000DC2F0000F5070000890A0000AA
S1130CA070B504001A4D431E9841C0B2194A290078
S1130CB0194EB04724692000431E9841C0B2174A18
S1130CC02900B04723680222134323600132E369F9
S1130CD01A42FCD104250422032010261049E3699A
S1130CE01A42FCD1638B1B090340012B0AD0013942
S1130CF00029F4D1013D002D06D06683E3691A4230
S1130D00FCD1EBE7002070BD06204042FBE7C04663
S1130D10DC2F000024050000F5070000F4050000A6
S1130D20FFFF0000F0B5DE4657464E464546E0B5A7
S1130D3083B00500884604690600731E9E41F3B221
S1130D400193B44FB44A39001800B44EB04728692F
S1130D50431E9841C0B2B822D2003900B047404681
S1130D60431E9841C0B2AE4A3900B0476B88DB05D8
S1130D7000D524E243465A8880235B001A43414647
S1130D804A802A00C1C9C1C2626813436360042255
S1130D90E3691A42FCD12F693B689946A14A9D49EF
S1130DA001989E4B98476B68012B5AD07B689E4AEA
S1130DB013407B600422FB691A42FCD12B885A053C
S1130DC05CD56A88D20704D56A888021C9000A43A1
S1130DD06A805B00954919400422FB691A42FCD1E0
S1130DE07B6A8022D2011A4080231B0213431943D9
S1130DF079620422FB691A42FCD129690B7EDBB2B9
S1130E008B4A0320184204D10B7EDBB2013A002A3C
S1130E10F8D13E680421FA691142FCD17A8B92B26E
S1130E20D90700D4A0E093073ED501233B766B8815
S1130E30802149010B436B806B887E490B406B809A
S1130E400120030013405842584105386B88794A01
S1130E5013406B8003B03CBC90469946A246AB4617
S1130E60F0BD4B461B01A1D57A688023DB021343F6
S1130E707B600422FB691A42FCD19FE76A885B000D
S1130E80FF210B40FE39114019430422FB691A4229
S1130E90FCD17B6A8022D20113400B437B62042283
S1130EA0FB691A42FCD1A8E753071BD46B885B0586
S1130EB035D52B88DB09062119400422FB691A4227
S1130EC0FCD17B6A8022D2011340F12213430B43ED
S1130ED07B62ED3AFB691A42FCD16B88564A134097
S1130EE06B8066E06B68002B04DD6B888022520106
S1130EF013436B806B881BB2002B06DB6B884D4A57
S1130F0013406B8002204042A0E77A68C0239B0212
S1130F1013437B600423FA691342FCD1EEE76B6848
S1130F20002B12D16B881BB2002B04DB6B88414A67
S1130F3013406B803DE07A68C0239B0213437B60BF
S1130F400422FB691A42FCD1F0E7AB681A78282323
S1130F50FA540422FB691A42FCD1AB680133AB603A
S1130F606B68013B6B6024E09B0722D56B68002B08
S1130F7040D052073ED43601F60F013B6B60002B84
S1130F8000D01FE1002E00D122E16B881BB2002BA0
S1130F901DDB6B88274A13406B80A9684B1CAB6030
S1130FA00422FB691A42FCD12823FB5C0B70022348
S1130FB03B76002680235B009A4603210422FF3BF4
S1130FC09C460133994626339B460196C2E07B68D2
S1130FD0184A13407B600632FF32FB691A42FCD187
S1130FE07A68C0239B0213437B600422FB691A4284
S1130FF0FCD1CEE702233B760220404226E762681A
S1131000C0239B02134363600422E3691A42FCD1A8
S1131010B5E0C046DC2F0000BF050000F507000066
S1131020C105000094050000FFFFFBFFFE07000060
S1131030FFFF0000FFFEFFFFFFFBFFFF02421BD18B
S11310406B885B0535D52B88DB0906201840E369DE
S11310501A42FCD1636A8026F6013340F1263343F9
S113106003436362E3691A42FCD16B887848034006
S11310706B80002301936DE06B68002B04DD6B88AB
S11310808020400103436B806B881BB2002B07DB7D
S11310906B88704803406B8002235B42019359E0E4
S11310A06068C0239B0203436360E3691A42FCD176
S11310B0EEE76B68002B13D16B881BB2002B06DBA9
S11310C06B88644803406B800023019342E06068AE
S11310D0C0239B0203436360E3691A42FCD1EFE738
S11310E0AB681B7858462354E3691A42FCD1AB68B9
S11310F00133AB606B68013B6B600023019329E013
S1131100002601964E461E4224D06B68002B4DD01B
S113111002424BD1FF0E60460740013B6B60002B3F
S113112000D082E0002F00D185E06B881BB2002B39
S11311302CDB6B88474803406B80A868431CAB607A
S1131140E3691A42FCD15B46E35C03704B462376A9
S1131150002301936B88504603422DD02E69337EC1
S1131160DBB23D48194241D1337EDBB2013800285D
S1131170F8D143465B881BB2002B00DA3FE76B884B
S1131180344A13406B800520404263E6636831486B
S113119003406360E3691A42FCD16068C0239B0288
S11311A003436360E3691A42FCD1C2E74B462376EA
S11311B002235B420193CDE7019E30004AE60620FC
S11311C0404247E6012B00D0E7E6002E00D1E4E6DA
S11311D07A688023DB0213437B600422FB691A4292
S11311E0FCD16B68002B00D1CFE6D6E62768E06916
S11311F00242FCD1608B80B266461E4200D17FE77A
S11312004B46034200D119E726766B888026760187
S113121033436B806B880F4E33406B8063461840BA
S113122046424641731F019394E7012B00D084E7A3
S1131230002F00D181E760688023DB0203436360F1
S1131240E3691A42FCD16B68002B00D16DE774E7A7
S1131250FFFBFFFFFFFEFFFFFFFF00000E4B1A6ABC
S1131260196A0E480240890F89070D4801430A4351
S11312701A629A6902210A439A611A7F1D310A404F
S11312801A7719000822CB681A42FCD0024A136A62
S113129080210B4313627047000800400000FF0FD9
S11312A002030000024A936902218B439361704751
S11312B000080040024B034A5A6005221A60704736
S11312C010E000E0FFFFFF0070B50B0E5E1EF6B2EB
S11312D0002B13D034000E4A0E4D8020400255607E
S11312E0956013680342FCD0013CE4B2FF2CF6D1B4
S11312F03306F61A084B9C4661447118044B596036
S113130099601900802252020B681342FCD070BD10
S113131010E000E0FFFFFF00010000FFF0B5DE4633
S113132057464E464546E0B58BB000AF3860B960CD
S113133015007A615A1C91000C00B9612900013131
S113134089004A430A32D208D20069468A1A95466D
S1131350FA60002D69DB62423A61043882469346A2
S113136000223A62FA6191469046043A121B7A606E
S11313704C469C4643E04B46D318FC6900251D515E
S113138008E04B46D4187B6A1B6801333D6A6351FD
S113139000E0336001317B6A04337B620432043041
S11313A08C4514DB4346002BE5D00029E3D053469B
S11313B01B680468A342E4D016004B46D318141FDC
S11313C024685D465B59A342E3DA2300E1E74C4617
S11313D001239946C8443B6999464C44FB6919006A
S11313E0BA6991464944F9613B6A19004944396232
S11313F0CB4404239946CA447B69434514DB6346C2
S1131400002BE5DB7B683A6A91464B441D00F96882
S113141089464D44BB695B441A004A44BB68181FA3
S113142000217D62A146BDE76346BA6992089446ED
S11314307D692A0061464A43D2189200F9685458DB
S1131440601E2ED4A3460C003A689146BA689246B0
S113145009E082003E6D9151013D013B013800E0FD
S1131460350000281CDB1B4AAA1892004946515833
S1131470184A9A189200564692599142E9D06E1E23
S11314805A1E904661467143C918890062466A43F0
S113149042449200095912599142E1DC4346E0E783
S11314A05C46002C0CDD3B6D984600250A4E23005B
S11314B04446984602CC0948B0470135A845F9D1BD
S11314C00748BD460BB03CBC90469946A246AB4685
S11314D0F0BDC046FFFFFF3FF11E0000F82F0000E3
S11314E01D130000F0B585B005000F000392042021
S11314F0134CA04706000420A047040000960123D3
S11315000122390028000F4FB8470094012301221B
S113151029000398B8470C480C4B98470C4F726845
S1131520316838000B4DA847626821683800A84725
S113153030682368C01A42424241D0B205B0F0BDBF
S11315407D1D00001D130000FC2F00000D20000075
S11315501C300000F11E000010B5884204DD421A60
S1131560074C0123A24209DC0023884206DA091A47
S11315700123034A914200DC0023DBB2180010BDB2
S1131580DC050000F0B5C64600B506000D00904627
S11315901C00069F1B683A68934208DCAD00434672
S11315A0AB5123680133236004BC9046F0BD08218D
S11315B0024B984708233B60F0E7C0462120000017
S11315C0F0B5DE4657464E464546E0B589B08246FC
S11315D00591002307930A330693002800DCA6E054
S11315E0002302930393002704939946544B9B468C
S11315F0544B984656E05448544B9847BE420BDD32
S113160006AB009307AB012204990598504FB847E5
S1131610049B0133049366E006AB009307AB0122FD
S11316205242049905984A4FB847049B01330493E6
S113163059E04848454B9847039B9D420BDD06AB58
S1131640009307AB022204990598414FB847049BC5
S11316500133049350E006AB009307AB02225242DD
S1131660049905983A4FB847049B0133049343E027
S113167006AB009307AB0322524204990598344FFA
S1131680B847049B0133049323002A0031003248F5
S1131690324FB84701239C46E14437000395029436
S11316A0CA4544D00A20D847062342463B212C4849
S11316B02C4CA04743461B781B02424656781E43D7
S11316C036B293781B02D5781D432DB213791B02D1
S11316D054791C4324B239003000234B9847002826
S11316E001D0002F87D1039F390028001E4B984753
S11316F0002801D0002F9CD1029F390020001A4BF2
S113170098470028C0D0002FBED018480F4B9847E8
S1131710029B9C42ACDD06AB009307AB0322049909
S113172005980B4FB847049B01330493ACE7059825
S113173009B03CBC90469946A246AB46F0BDC046B3
S11317403104000098000020243000000D20000027
S1131750851500003C3000006C300000F11E0000D4
S1131760B8000020E10500005915000054300000C5
S1131770F0B583B0194F1A4E1A4D6420B847684625
S1131780B047C023DB051C68174A126A1B69534023
S11317901C4054406846A8472304EED48021C90560
S11317A09C23C022D205D1501048114B98470B4FAF
S11317B00B4E0C4D6420B84701A8B047C023DB058D
S11317C01C68094A126A1B6953401C40544001A812
S11317D0A8472304EED503B0F0BDC0463104000091
S11317E0010400000F040000004400419030000098
S11317F00D200000F0B5D6464F464646C0B586B02B
S11318005E4B984728205E4EB04701902820B04791
S113181003902820B0470290C8205A4B98475A4B4F
S11318201B68002B3CD005A8584B9847C023DB0508
S113183080229E58203256498A5890215B58534042
S11318401E40564005A8534B9847730022D44E4B74
S11318501B68002B1EDD012B00D175E04E484F4B59
S11318609847019D290032204D4B9847FA2080006B
S1131870444B98472C0028354A4E4B4F02CC30003D
S1131880B847AC42FAD10A20484B98473E4A1368FD
S1131890013B136006B01CBC90469946A246F0BDBD
S11318A043483E4B9847029D290032203C4B9847C1
S11318B0FA20C000334B98472F002835394E3A4C54
S11318C002CF3000A047AF42FAD10A20374B9847E5
S11318D0029A03990198374B9847060001004B1E62
S11318E099413548304B9847002E12D033482B4B42
S11318F098470A26C023DB059A469C258024E405E4
S1131900204F53465C51FA20B847013E002EF8D1CF
S113191089E72B48214B9847C023DB0598469C2731
S11319208023DB05994643464A46DA51FA20154E90
S1131930B04743464A46DA51FA20B04743464A463E
S1131940DA51FA20B0476EE71E48144B9847039CBF
S113195021003220124B9847FA208000094B984707
S1131960250028340F4E104F02CD3000B847AC424A
S1131970FAD10A200D4B984788E7C046711700003A
S11319807D1D00003104000000000020010400005F
S1131990004400410F040000343100000D20000019
S11319A0C1150000F82F0000F11E0000251F0000E3
S11319B0A0300000E5140000BC300000EC30000052
S11319C0043100001C310000F0B5CE46474680B516
S11319D083B0304B984730490F20304B9847304DF7
S11319E001A928002F4B984728002F4B9847010046
S11319F02E482F4CA04780221201682128002D4B2D
S1131A00984701002C48A0476B46DF1C01233A008D
S1131A1075212800294EB046B04701002848A04748
S1131A2039782848A047FA204000274FB8470223B6
S1131A306B44994601234A466B212800B0470100B4
S1131A402248A0474B4619782148A047FA20400075
S1131A50B8476B465A1C202313701F3B6B21280088
S1131A601C4EB04701001C48A047FA204000B8476C
S1131A7001236A466B212800C04701001748A0478C
S1131A806B4619781648A047002003B00CBC90465A
S1131A909946F0BD15010000F5170000AD040000E3
S1131AA0B800002029060000950500004C31000014
S1131AB0F11E0000A105000060310000E1050000F6
S1131AC07C3100009031000031040000A43100009A
S1131AD0B4310000B5050000C8310000D431000065
S1131AE0E831000010B50B00002809D111001800DE
S1131AF0054B9847002800DB10BD01204042FBE75E
S1131B0001204042F8E7C046611B000010B50B00FD
S1131B100138022809D811001800054B98470028FD
S1131B2000DB10BD01204042FBE701204042F8E702
S1131B30851B000070B50600064D2B6898680021CF
S1131B40054CA0472B6858680021A047034B1E6032
S1131B5070BDC0460400002059200000A0000020F1
S1131B6010B50400054B1868002804D08AB221007F
S1131B70034B984710BD0020FCE7C046A00000209E
S1131B806506000010B50400054B1868002804D051
S1131B908AB22100034B984710BD0020FCE7C046E1
S1131BA0A00000203106000010B5044C2000044BB6
S1131BB098472000034B984710BDC046AC00002056
S1131BC0C9070000351B0000002243088B4274D370
S1131BD003098B425FD3030A8B4244D3030B8B422A
S1131BE028D3030C8B420DD3FF22090212BA030C33
S1131BF08B4202D31212090265D0030B8B4219D314
S1131C0000E0090AC30B8B4201D3CB03C01A524133
S1131C10830B8B4201D38B03C01A5241430B8B427B
S1131C2001D34B03C01A5241030B8B4201D30B0364
S1131C30C01A5241C30A8B4201D3CB02C01A52418B
S1131C40830A8B4201D38B02C01A5241430A8B424E
S1131C5001D34B02C01A5241030A8B4201D30B0237
S1131C60C01A5241CDD2C3098B4201D3CB01C01A51
S1131C70524183098B4201D38B01C01A524143095B
S1131C808B4201D34B01C01A524103098B4201D349
S1131C900B01C01A5241C3088B4201D3CB00C01AB6
S1131CA0524183088B4201D38B00C01A524143082E
S1131CB08B4201D34B00C01A5241411A00D2014653
S1131CC0524110467047FFE701B5002000F006F8C6
S1131CD002BDC0460029F7D076E770477047C0467A
S1131CE010B50023002802D000F004F8431C1800AB
S1131CF010BDC046414208401C2101231B049842E8
S1131D0001D3000C10391B0A984201D3000A083988
S1131D101B09984201D30009043902A2105C401A3D
S1131D207047C0461B1C1D1D1E1E1E1E1F1F1F1F8D
S1131D301F1F1F1F70B500260C4D0D4C641BA410F3
S1131D40A64209D1002601F0A7FA0A4D0A4C641BE9
S1131D50A410A64205D170BDB300EB5898470136D4
S1131D60EEE7B300EB5898470136F2E7A4320000DF
S1131D70A4320000A4320000A832000010B5034BC6
S1131D800100186800F056F810BDC0460400002099
S1131D9003008218934200D1704719700133F9E7A8
S1131DA070B50500002910D00C1F2368002B00DA41
S1131DB0E418280000F0CCFC1D4A1368002B05D160
S1131DC063601460280000F0C4FC70BDA34209D90C
S1131DD0216860188342F3D118685B684118216058
S1131DE0EEE713005A68002A01D0A242F9D9196813
S1131DF05818A0420BD1206809185818196082425B
S1131E00E0D110685268411819605A60DAE7A042BC
S1131E1002D90C232B60D5E721686018824203D1D4
S1131E20106852684118216062605C60CAE7C0466D
S1131E30A4000020032370B5CD1C9D430835060083
S1131E400C2D1ED20C25A9421DD8300000F080FCB8
S1131E50254A14682100002919D1244C2368002B39
S1131E6003D1300000F0E6F820602900300000F0D3
S1131E70E1F8431C2CD10C233000336000F069FCE2
S1131E8003E0002DDFDA0C233360002070BD0B6803
S1131E905B1B1AD40B2B03D90B60CC18256003E011
S1131EA08C420ED163681360300000F052FC2000B5
S1131EB007220B30231D9043C31AE7D05A42E25045
S1131EC0E4E74B6863600C00EEE70C004968C2E786
S1131ED00323C41C9C43A042E0D0211A300000F02C
S1131EE0A9F8431CDAD1C6E7A4000020A80000200A
S1131EF00FB40B4B13B51C68002C05D0A369002B41
S1131F0002D1200000F022FB05AB049AA168200056
S1131F10019300F06DFC16BC08BC04B01847C04621
S1131F2004000020084B70B51C680500002C05D087
S1131F30A369002B02D1200000F008FB2900A2684D
S1131F40200000F0F9FE70BD0400002070B505000B
S1131F500E00002804D08369002B01D100F0F6FAAA
S1131F60AB69AC68002B02D1280000F0EFFA244BD7
S1131F709C420FD16C68A3891B0702D52369002BEF
S1131F8020D12100280000F073F900281AD0012084
S1131F90404270BD1B4B9C4201D1AC68EBE71A4B2D
S1131FA09C42E8D1EC68E6E7013B0136A360002BD4
S1131FB004DAA269934216DB0A2914D023685A1C56
S1131FC0226019703178A3680029EDD1013BA36028
S1131FD0002B0FDA22000A31280000F0F3F8431C2A
S1131FE0D5D00A20D5E72200280000F0EBF8431CE6
S1131FF0E8D1CCE70A2023685A1C22601870C8E78D
S113200024320000443200000432000010B5034BB7
S113201001001868FFF79AFF10BDC04604000020B5
S113202010B5034B0A000100186800F093FB10BDC3
S113203004000020002370B5064C0500080023604E
S1132040FEF7DCFB431C03D12368002B00D02B607C
S113205070BDC046D80000204A424A41802310B5D2
S11320605200DB0000F002F810BD0000F0B51D00C6
S11320704F4B85B01E6804000F000092002E05D05F
S1132080B369002B02D1300000F060FA494B9C4246
S113209050D17468009B022B05D0012B00D984E039
S11320A0002D00DA81E02100300000F0E1F9616BDD
S11320B0002908D023004433994202D03000FFF7AE
S11320C06FFE002363630023A3616360A3891B067F
S11320D003D521693000FFF763FEA389364A134014
S11320E0A381009B022B5AD003AB02AA210030002B
S11320F000F0C2FAA3891843A081002D24D1029DC7
S11321002800FFF73BFE0195071E42D1029B019375
S1132110AB4239D1012040420223A2891343A38157
S11321200023A360230047332360236101236361F9
S113213005B0F0BD214B9C4201D1B468AAE7204B05
S11321409C42A7D1F468A5E7002FD9D0B369002B2E
S113215002D1300000F0FAF9009B012B03D1A389CE
S1132160009A1A43A2810820A38927602761656128
S1132170184018D0012018400023984211D06D4215
S1132180A360A5611800D3E70198FFF7F7FD071EC8
S1132190C0D08023A289019D1343A381D6E70020E8
S11321A0BAE7A560C4E7A060C2E701204042BFE7E8
S11321B004000020243200005CF3FFFF44320000DE
S11321C004320000F8B505000E001400002804D005
S11321D08369002B01D100F0B9F9224B9C422DD127
S11321E06C68A369A360A3891B0731D52369002BFD
S11321F02ED023682269F7B2981A6369F6B298421E
S113220005DB2100280000F033F9002826D1A3685B
S11322100130013BA36023685A1C22601F7063696C
S1132220984204D0A389DB071AD50A2E18D12100BD
S1132230280000F01DF9002812D00FE00A4B9C4240
S113224001D1AC68CDE7094B9C42CAD1EC68C8E720
S11322502100280000F00CF80028CAD0012676429C
S11322603000F8BD24320000443200000432000083
S1132270364B70B51D6806000C00002D05D0AB6907
S1132280002B02D1280000F061F9314B9C420FD1A0
S11322906C680C23E25E93B219072DD4D90611D4CD
S11322A009230120336037331343A381404270BDB7
S11322B0284B9C4201D1AC68EBE7274B9C42E8D108
S11322C0EC68E6E75B0713D5616B002908D02300AF
S11322D04433994202D03000FFF762FD0023636368
S11322E02422A3899343A381002363602369236089
S11322F00823A2891343A3812369002B0BD1A021B6
S11323008022A389890092000B40934203D02100CC
S1132310300000F0D9F90123A289134011D0002321
S1132320A36063695B42A361002023698342BED139
S11323300C23E25E1306BAD540231343A38101386C
S1132340B5E7920700D46369A360EDE704000020B9
S1132350243200004432000004320000F7B58A89B8
S113236005000C00130760D44B68002B04DC0B6CD5
S1132370002B01DC0020FEBDE76A002FFAD0002309
S11323802E682B6080235B011A4034D0606DA389D2
S11323905B0706D56368C01A636B002B01D0236CFE
S11323A0C01A0200216A00232800E76AB847A189FD
S11323B0431C06D12B681D2B31D82C4ADA40D30795
S11323C02DD50023636023692360CB0405D5431C0A
S11323D002D12B68002B00D16065616B2E6000294F
S11323E0C8D023004433994202D02800FFF7D8FC18
S11323F000206063BFE70123216A2800B847431C1B
S1132400C5D12B68002BC2D01D2B01D0162B01D1B6
S11324102E60AFE74023A2891343A381ABE7402397
S11324200B430120A3814042A5E70F69002FA1D0EF
S11324300B680F60DB1B01930023920700D14B69EB
S1132440A360019B002B00DC94E7019B3A00216A06
S11324502800A66AB047002803DC4023A28913435E
S1132460DFE7019B3F181B1A0193EAE701004020B4
S11324700B6970B505000C00002B01D1002070BD64
S1132480002804D08369002B01D100F05FF80B4BC6
S11324909C4209D16C680C22A35E002BEED0210073
S11324A02800FFF75BFFEAE7054B9C4201D1AC68CB
S11324B0F1E7044B9C42EED1EC68ECE724320000D7
S11324C0443200000432000010B5024900F0B2F8B2
S11324D010BDC04671240000002310B50400036041
S11324E04360836081814366C28103614361836188
S11324F0190008225C30FFF74BFC054B2462636231
S1132500044BA362044BE362044B236310BDC04637
S1132510A52D0000CD2D0000052E0000312E000059
S113252070B568254A1E55430E0029007431FFF723
S113253081FC041E08D000212A00016046600C3092
S1132540A0606832FFF724FC200070BD836913B5D6
S11325500400002B28D18364C3640365134B144A1D
S11325601B6882620193984201D101238361200098
S113257000F020F86060200000F01CF8A06020004B
S113258000F018F80022E06004216068FFF7A4FF5F
S113259001220921A068FFF79FFF02221221E068AF
S11325A0FFF79AFF0123A36113BDC0460032000068
S11325B0C9240000F8B51E4B07001E68B369002B40
S11325C002D13000FFF7C2FF4836B4687368013B9C
S11325D004D53368002B07D03668F6E70C22A55ED5
S11325E0002D0DD06834F2E704213800FFF798FF7E
S11325F030600028F0D10C2304003B602000F8BDBB
S1132600012320005B42E3810233A38165662560D8
S1132610A560656025616561A561082229005C30BB
S1132620FFF7B6FB6563A563A564E564E6E7C0460A
S113263000320000F7B50400070000260191483479
S1132640002C01D13000FEBD6368A5680093009B97
S1132650013B009301D52468F2E7AB89012B08D92B
S11326600E22AB5E013304D029003800019B984749
S113267006436835EBE7000070B50E001D000E231D
S1132680C95E90B01400002907DA00232B60B389D7
S11326901B0611D48023DB000FE001AA00F0F4FB39
S11326A00028F2DBF022029B12021340054A9B1819
S11326B05A4253412B60EDE740230020236010B0C1
S11326C070BDC04600E0FFFFF7B502268B89050008
S11326D00C00334206D023004733236023610123D7
S11326E06361F7BD01AB6A46FFF7C6FF00990700B7
S11326F02800FFF79FFB002808D10C22A35E9A054F
S1132700EFD4032293431E43A681E4E70F4BAB624D
S11327108023A28920601343A381009B206163610D
S1132720019B002B0DD00E23E15E280000F0BEFBC0
S1132730002806D00322A38993431A0001231343DC
S1132740A381A0893843A081CBE7C046C9240000F7
S113275070477047F8B507000D001600002905D131
S11327601100FFF767FB04002000F8BD002A03D125
S1132770FFF716FB3400F7E700F0D2FB2C0086428B
S1132780F2D931003800FFF755FB041EECD02900C4
S1132790320000F0BCFB29003800FFF701FBE3E73F
S11327A0936810B5013B9360002B05DA9469A3424A
S11327B008DBCBB20A2B05D01368581C10601970C3
S11327C0C8B210BDFFF7FEFCFBE7F8B506000F002A
S11327D01400D518AC4201D1002007E021783A005A
S11327E03000FFF7DDFF0134431CF3D1F8BD0000D6
S11327F0F0B59FB006000F0014000593002804D024
S11328008369002B01D1FFF7A1FE7F4B9F425CD16E
S11328107768BB891B0762D53B69002B5FD0002317
S113282006AD6B6120336B761033AB760294029C59
S11328302378002B5DD1029BE31A04930DD0049BF3
S1132840029A39003000FFF7C0FF431C00D1CCE0EE
S11328506A69049B944663446B612378002B00D11E
S1132860C3E00122002352426A6002A95432521882
S113287001342B60EB60AB601370AB6521780522EB
S1132880624800F039FB631C9C46002835D1296856
S1132890CB0604D5532302AA20309B1818700B07CB
S11328A004D553232B2002AA9B18187023782A2BB3
S11328B02CD000200A21099B2278303A092A00D81A
S11328C06BE000282AD0099328E0514B9F4201D1A4
S11328D0B7689EE74F4B9F429BD1F76899E7390051
S11328E03000FFF7C5FC002899D0012040421FB0FA
S11328F0F0BD252B9FD001349AE7444B2968C01AB8
S1132900012383400B432B606446B7E7059B181DE6
S11329101B680590002B3ADB0993644623782E2B21
S11329200BD16378621C2A2B3FD1059B02341A1DFC
S11329301B680592002B35DB079321780322364868
S113294000F0DAFA002807D0334B2A68C01A402373
S1132950834013432B6001342178631C06222F48E3
S11329600293297600F0C8FA002844D02C4B002B9F
S11329702FD12968059B0722C90528D59B189343A5
S1132980083305936B69039A9B186B614FE75B42AD
S1132990EB6002230B432B60BFE74B4301349B18CE
S11329A0012089E701235B42C6E7002314000A20C3
S11329B01A006B6021783039092903D9002BBCD067
S11329C00792BAE74243013452180123F2E707336E
S11329D0D5E705AB00933A00124B2900300000E024
S11329E000BF0390039B0133CCD1BB895B0600D5A8
S11329F07BE70B987BE705AB00933A00094B290072
S1132A00300000F07FF8ECE724320000643200006C
S1132A1044320000043200006A3200006E320000CA
S1132A2000000000CB270000F7B5150001938A6869
S1132A300B6900900C00934200DA130022002B6013
S1132A4043321278002A01D001332B6023689B069D
S1132A5002D52B6802332B60062723681F4027D03A
S1132A60230043331B785A1E93412268920630D4C4
S1132A702200019943320098089EB047431C25D098
S1132A80062320682A68E16803400025042B03D14B
S1132A908D1AEB43DB171D40A3682269934201DDC5
S1132AA09B1AED180027BD4220D1002010E0013709
S1132AB0E3682A689B1A9F42D2DA22000123193262
S1132AC001990098089EB047431CF0D10120404270
S1132AD0FEBD3020E1184331087021005A1C4531F5
S1132AE00978A218433202331170C1E7220001238E
S1132AF01A3201990098089EB047431CE6D001376A
S1132B00D1E70000F0B58BB006920A004332079378
S1132B10059004920A7E0C00109B6E2A00D18FE06F
S1132B2017D8632A2CD008D8002A00D199E0582A53
S1132B3054D026004236327029E0642A01D0692A32
S1132B40F7D121681A68080623D5111D1960156884
S1132B5025E0732A00D188E008D86F2A29D0702A8A
S1132B60E7D1202209680A43226003E0752A20D0B5
S1132B70782ADED122007821453211706C4A30E087
S1132B800E001A684236111D196013683370012350
S1132B9079E04906D9D5111D19600023D55E002DB1
S1132BA003DA2D23049A6D421370624B0A270393B0
S1132BB02FE020681968050603D5081D18600D6804
S1132BC005E04006F9D50D68081D1860ADB2594BF3
S1132BD0082703936F2A18D00A2716E045310A7094
S1132BE0544A03921A682168101D18601568080673
S1132BF022D5CB0702D52023194321601027002DAD
S1132C0003D1202322689A43226023000022433305
S1132C101A706368A360002B5CDB04222168914373
S1132C202160002D58D1049E002B64D02600039B04
S1132C3042361B7833705EE04806DAD5ADB2D8E789
S1132C4009681A68080605D5111D196013686269B8
S1132C501A6006E04906F7D5111D19601368A28AA7
S1132C601A800023049E236154E01A68111D196020
S1132C70166800216268300000F03EF9002801D097
S1132C80801B6060636823610023049A137041E031
S1132C902369320006990598079DA847431C43D031
S1132CA0236800259B070FD4099BE06898423DDA0E
S1132CB018003BE022000123193206990598079E6B
S1132CC0B047431C30D00135E368099A9B1A9D42F2
S1132CD0F0DBE9E7002DA9D0049E28003900FEF7B7
S1132CE0F9FF039B013E5B5C280033703900FEF75B
S1132CF06BFF051EF1D1082F09D12368DB0706D528
S1132D0063682269934202DC3023013E3370049BE2
S1132D109B1B2361079B09AA00932100069B05982E
S1132D20FFF782FE431CB3D1012040420BB0F0BD3B
S1132D30863200007532000070B506000D001400E4
S1132D40002804D08369002B01D1FFF7FFFB124B4D
S1132D509C4211D17468A368013BA360002B05DA7F
S1132D60A269934212DBEBB20A2B0FD02368E8B2BC
S1132D705A1C22601D7070BD084B9C4201D1B4687E
S1132D80E9E7074B9C42E6D1F468E4E72200290016
S1132D903000FFF717FAEEE7243200004432000057
S1132DA00432000070B50C000E25495F00F0C0F835
S1132DB0002803DB636D1B18636570BDA389024A99
S1132DC01340A381F9E7C046FFEFFFFFF8B51F00EA
S1132DD08B8905000C001600DB0505D50E23C95EA2
S1132DE00022022300F074F8A389054A2800134046
S1132DF0A38132000E23E15E3B0000F01FF8F8BD12
S1132E00FFEFFFFF70B50C000E25495F00F060F87E
S1132E10A389421C03D1054A1340A38170BD8022BB
S1132E2052011343A3816065F8E7C046FFEFFFFF3B
S1132E3010B50E23C95E00F015F810BD70B505007D
S1132E40080011000022064C22601A00FEF75EFE04
S1132E50431C03D12368002B00D02B6070BDC046F7
S1132E60D8000020002370B5064C0500080023603C
S1132E70FDF7D6FC431C03D12368002B00D02B6044
S1132E8070BDC046D8000020002370B5064C050074
S1132E90080011002360FDF7C6FC431C03D123681E
S1132EA0002B00D02B6070BDD8000020002370B52B
S1132EB0064C050008002360FDF7BAFC431C03D14F
S1132EC02368002B00D02B6070BDC046D8000020C2
S1132ED070B50500080011000022064C22601A009B
S1132EE0FDF7A8FC431C03D12368002B00D02B6002
S1132EF070BDC046D8000020C9B28218904201D1EA
S1132F000020704703788B42FBD00130F6E70023A2
S1132F1010B59A4200D110BDCC5CC4540133F8E71B
S1132F200B1F1B68181F002B01DA0B58C0187047C1
S1132F3070B50500080011000022064C22601A003A
S1132F40FEF7D0FD431C03D12368002B00D02B6077
S1132F5070BDC046D80000202E2E2F68616C2F73E0
S1132F6072632F68616C5F6932635F6D5F73796E42
S1132F70632E63002E2E2F68616C2F7372632F688B
S1132F80616C5F696F2E63002E2E2F68616C2F7346
S1132F9072632F68616C5F75736172745F73796EAD
S1132FA0632E63000F0000000F0000002E2E2F6818
S1132FB0706C2F6569632F68706C5F6569632E633D
S1132FC000000000000000001400200000010000C8
S1132FD0FF0000000000D70040420F002E2E2F6893
S1132FE0706C2F736572636F6D2F68706C5F73659F
S1132FF072636F6D2E63000025642000546865734E
S113300065206172652074686520636F6D6D6F6EF5
S1133010206765737475726573000000256420254C
S1133020640A0000646972656374696F6E20636882
S1133030616E676520696E207800000064697265BE
S11330406374696F6E206368616E676520696E20C2
S113305079000000646972656374696F6E20636847
S1133060616E676520696E207A000000583A202559
S1133070642020202020202020593A20256420206C
S11330802020202020205A3A2025640A0000000035
S1133090427574746F6E207072657373656400009A
S11330A00A5265636F7264696E672046696E616C6B
S11330B02047657374757265000000000A2052652C
S11330C07475726E207768657468657220746865BB
S11330D020676573747572652077617320747275E7
S11330E0652831292D2025640A0000005375636387
S11330F065737366756C6C7920636C617373696650
S11331006965640047657374757265206E6F742019
S11331107265636F676E697A656400000A5265635D
S11331206F7264696E6720476573747572652032C7
S1133130000000000A5265636F7264696E6720477D
S113314065737475726520310000000049324320B4
S1133150456E61626C6564202D2025640A000000C0
S11331604D61736B656420536C61766520416464C2
S113317072657373202D2025640A000072656164F2
S11331802064617461203A203A2025780A00000006
S11331905265616420427566666572203A2025781E
S11331A00A0000000A726561645F61636B203A2063
S11331B025640A0072656164627566666572203A08
S11331C02025780A000000007772697465203A208F
S11331D025640A000A726561645F61636B31203A99
S11331E02025640A000000007265616462756666E9
S11331F0657231203A2025782020202020200A00E2
S11332000800002000000000000000000000000092
S113321000000000000000000000000000000000AA
S1133220000000000000000000000000000000009A
S1133230000000000000000000000000000000008A
S1133240000000000000000000000000000000007A
S1133250000000000000000000000000000000006A
S113326000000000232D302B2000686C4C006566A4
S113327067454647003031323334353637383941C3
S113328042434445460030313233343536373839D9
S11332906162636465660000F8B5C046F8BC08BCAA
S11332A09E467047DD000000F8B5C046F8BC08BC77
S10B32B09E467047B5000000C2
S11332B80200000008000020000000002432000082
S11332C84432000004320000000000000000000046
S11332D800000000000000000000000000000000E2
S11332E800000000000000000000000000000000D2
S11332F800000000000000000000000000000000C2
S113330800000000000000000000000000000000B1
S10B33180000000000000000A9
S9030000FC
